:0600000002000E02089F41
:0E000B0002092BD2AF75817F7590FF758A00B8
:10001900758CF1120FC3120FC0787F76FFB6FF0BF4
:0F0029007600B6000618B801F28008787F7600DE
:0E003800D8FC79FCD221892C752602120BF11E
:10004600752E43752F435390F8202106D28CD2A9E2
:0E005600D2A8300807C02C1209AAD02CE52C25
:0F00640012072170EFC221302003752601E52C11
:0F00730064AA600B3008FD2020FA1209AA80F55C
:100082007F347E01C2D531C5000020B42A300A0770
:0F009200DB022114300B46EFF8EE566040D20E21
:1000A1005179B52703120C77E53224F05004513F02
:1000B100802C31FA510E80241B5179F46020D2D565
:1000C100050EEFF8EE567016050F212AE53224F0E1
:1000D10050045146800851015107518B51E7EE23DD
:0F00E100FE20E00505A00080A2E5215403600D7C
:0F00F00012097C301E07C21E532103808551E781
:1000FF003001050F31DA808530D5052020058003CA
:10010F00120C770182200F0A300D0C200E0451467D
:10011F0051E753210380B9D20D8060200A0B21A330
:0F012F00532103D20AD20F8049BB0058100DEFA5
:0F013E00200B0EC20F120C773195703B5321032B
:0F014D0001CD100C12200E0BE50FC3950A4004D4
:0F015C0031957025D20C802631957009200EDF69
:10016B00514651E780D9E50FC3950A500D200E0A71
:0F017B00514651E78004C20B8007850F0AC20E60
:0F018A00D20B7B78E4F50EF50F01DFE50E24FCB8
:0F0199005006E50F14600122E42275F006E521FF
:0F01A8005403600D12097C301E07C21E53210341
:1001B70001821202E77854D8FED5F0E3212FD2B09E
:0F01C700D29575200374F8F5A0FC7580FF74FEC7
:1001D600F580FD2275A0F87580FFEDD333F580FD1F
:1001E600EC92E2C333F5A0FCE52033F5201392959B
:1001F6001392B022EFF8EEF456F622EFF8EE46F63A
:10020600225179798051582251176004790051584A
:10021600225179E526B4031951C8601314601714E6
:10022600600D146011EA24F05005EA24EB5007E44F
:1002360022BA4F02E42274FF225117700331FA22C8
:0F024600E5326411600B201F087AFF79005158D0
:10025500D21F22A82EE954804AF6E93333E55533F7
:0F026500F555E55433F554921C08B8540278430C
:10027400882E053222E5A05407F8EFC39434C40352
:1002840028900F0093FA22E526B4031A51C860336C
:0E029400146030146014146011EA900DF193A0
:1002A200B484012220E70522BA4F01228A27C2A87C
:1002B200C2A9C28C85280C85290DC209D28CD2A96B
:1002C200202002D2A822120BDCE857601768600CCB
:0F02D200E8035857600374012274022230250399
:1002E10074032274042220084BE533602EA830E603
:0F02F100120718787DD8FE703B05301533E533C2
:100300006006D19260E880F2301B0575307461752B
:100310001532052FE52FB45403752F43E5326015D0
:10032000753074E526B4030EA12CD21B8002C21BCB
:0F03300075307480B222A82FE6FAB4FF08B1FD31
:0F033F007424D11A80E9D1EE601CB152301DF543
:10034E002015F22014EFC21DBA14028161BA1702F1
:0F035E008188BA4EE0819AEA20E702819EC21D93
:0E036D00D128E533600280B5A82FE6547FFA50
:10037B00BA14028153BA17028170BA4E02818CEA09
:10038B0024EC402FEA24F6502EEAC3940A75F003AE
:0E039B00A49003A0730203F102031002042BCE
:0F03A90002041F0203BE0203E10204170204252F
:1003B800020431020448B152612E30230A2013117D
:0F03C80020120ED14A800A301302D15D3012028A
:0F03D700D1810531D218B152612E301302D15DA0
:0E03E600301202D1810531B152612E20171B59
:0F03F40020161820150B201408201305201202C4
:10040300D14A0531D219C21AB152612E0531D21A1D
:10041300B152612EB1527405D11A612EB1527404D6
:1004230080F6B152740780F0B152740680EAB1527B
:0F0433007401D11A740330200A20940720B304F7
:0F044200D11A742280D3B152740012061A7402B8
:1004510080E6B15230201620941320150E20140B83
:0F04610020B304741A80B3741280AFD21D612EC1
:0F047000B1522015072014047413D11A3020EF55
:0F047F002094EC2015E72014E47411808FB15203
:10048E003020DD2094DA2015D52014D27410811B73
:0E049E00EA24EC402FEA24F6502EEAC3940A1A
:0E04AC0075F003A49004B4730204E50203107B
:0F04BA000204FB0204EF0204D20204E30204E78F
:0F04C9000204F502050102051DB1C0612EB1C08C
:0F04D800E5316003D53102D128612E80F180EF2C
:1004E700B1C0740DD11A612EB1C0740C80F6B1C0C1
:1004F700740F80F0B1C0740E80EAB1C07409D11ACC
:0F050700740BD11A20120D301805302307800312
:0F051600301902D14A612EB1C07408D11A740A8B
:10052500D11A3013E4612EA82FE6FAB4FF08B1FD05
:0F0535007424D11A612ED1EE6004B152612EEA06
:1005440020E704B1C0612E547FFAB152612EA9266E
:0E055400B903028058BA4F2F2015142014113D
:0F056200B90207900E6B79088016900E6179062A
:0F057100800FB90207900E7379058005900E6711
:100580007904E493120607A3D9F822EA24F0401371
:0F059000BA0A0E301A0BB9020474848011745425
:0F059F00800DD120900D11B90203900D81EA93C8
:0F05AE00D10722EA900DF193B484028002547FAA
:0F05BD00D10722A926B903028032EA24F04015A3
:0F05CC00BA0A10301A0DB90206D1247484801BAC
:0E05DB0074D48017D120B90202D124900D11E2
:1005E900B90203900D81EA93B901024480D107222F
:1005F900D12480B4E4A826B80101F4D10722A83097
:10060900F6C3E57333F573E57233F57205300533D7
:0F06190022A830F6D380EB74E080E374F080DF2A
:0E062800C218C219301007201209D16E8005C9
:0E063600301202D181301106201308D14A2261
:0E064400301302D15D227903D120742AA8263A
:0F065200B802027412D107E9D11A22790BD12014
:0F066100A826B80204D12480EB74AA80E979029C
:10067000D1207436A826B802027459D107E9D11ADC
:1006800022790AD120A826B80204D12480EB74B6BE
:1006900080E9E53314540790071093F8E53324F705
:1006A0005006E85572700722E85573700122A83091
:1006B000E620E53120E41320E306934522F52222CB
:1006C000540793F45522F522F42220E315B41003C5
:0F06D000B29022B41103B29122B41203B292225B
:0F06DF00B22322D29222B42203C29222C21F223D
:1006EE00E53214540790071093F8E53224F7500EB4
:0F06FE00E532B41105E4A21C3322E8555422E87A
:0E070D005555220102040810204080302006BD
:0E071B000208140207C4F52CC2A8C2A9C28CA1
:100729002008F230B2EF30B5EC7908C29630B5E561
:0F0739007805D8FE0030B5DDC2977807D8FE00EE
:10074800D29730B5D130B5CE7803D8FE30B5C703CF
:0F07580020E704C2968004D296000030B5B800A6
:100767007804D8FE30B5B0C2977807D8FE00D29784
:10077700D9D430B5487803D8FE0030B54020D0042E
:10078700D2968004C296000030B5327804D8FE00B5
:0F07970030B52AC2977807D8FE00D29730B51E2A
:0E07A6007806D8FE00D2967807D8FE00C297DB
:1007B40020212D7806D8FE00D2977807D8FE800E27
:1007C400D296202106D28CD2A9D2A874FF22D28C30
:1007D400D2A9D2A8E52CB4FE030207E2F52DE42247
:0F07E40020B20C20B21020B214D220780280175D
:0E07F30030B2F17803800E30B2ED780280074C
:1008010030B2E978018000C220D8FED2973020AD05
:0F08110002088EC2A9C28C790720B5030208988D
:0F082000C2970000000000D2967818D8FE781317
:10082F0020B209D8FBC296D297020898D297780FB8
:10083F00D8FE00C29700000000000320E704C29614
:0F084F008004D29600007802D8FE00D297780F6E
:10085E00D8FE00C297D9E10000000320E704C2963B
:10086E008004D29600007802D8FED297780FD8FE78
:10087E0000C2977803D8FE00C2967803D8FED297AE
:10088E00780FD8FED28CD2A9E422D28CD2A974FFD2
:0F089E002230200302092AC0E0C0D0D2D3C2D535
:0F08AD00790820B50630B2FA020926780FD8FE76
:0F08BC0030B203020926C2977807D8FEC3D2973D
:1008CB0020B2028003B2D5D31300780CD8FED9E73F
:1008DB00C2977807D8FE00D29720B2028003B2D518
:0E08EB0000780ED8FEC2977807D8FE00D2978C
:1008F90020B202800200007805D8FE00C29678076F
:10090900D8FE00C2977807D8FE00D2977807D8FE9C
:0F09190000D296FBA2D59224D208000000D0D0C5
:10092800D0E032758A00758CF1C0D0D2D320B51DC5
:0F09380030201AD29630B213C28C785330B20AE4
:0E09470020B507D8F8C296020CAED28CC2962C
:10095500BD0006BC000CD0D032DDFBBC00F8D209CE
:1009650080F41C1D80F074FA120721600920080428
:0F097500E52C80F474FF2220082B30B510E532FA
:1009840024F0400A7940AA271202581202E7C2A8AA
:10099400C2A9C28C852A0C852B0DC209D28CD2A97E
:1009A400202002D2A822C2A8C208AA0BA224D2A83C
:0F09B40050030209BC020BB6EAB4FE03020A8C20
:1009C300B4F103020A32B4EF03020A3224135003D0
:0E09D3000209D9020A327525009009E6EAF4FD
:0E09E10075F003A473020A60020A25020A9050
:0F09EF00020A96020A9C020AD5020AEA020AEEDE
:0F09FE00020AF2020AF6020B01020B0E020B199B
:0F0A0D00020B4A020A25020B6D020A25020B9109
:0F0A1C00020B993008FD0209AA7525002022F46B
:100A2B003008030209AA22EA30280520E7246122B4
:100A3B0030290624F8401B61A2302A0624FC401200
:0F0A4B006177302B0DB4830241ACB4840241AC0F
:0F0A5A0030E7FB020BB612096B7024C2A9C28CE5
:0F0A6900C2A820081520B50530B20F80F87829F3
:0F0A780030B20830B505D8F8020C80D28CD2A964
:0F0A8700D2A8020A25E52D61B8C226C227800A2F
:100A9600C226D2278004D226C227316B702E910837
:0F0AA600D222D22B411F316B7022900E78EA932F
:0F0AB500B4FF02411FFA71DCE8F457F720260A5C
:0E0AC400302705E8035847F7411FE82380F765
:0E0AD200020A257AFF316B700CEA7856F6089E
:100AE000B872FBD2259108020A257A0080E97A556E
:0E0AF00080E57AAA80E1316B700471F1910803
:100AFE00020A25316B700671F19108D222020A2585
:0F0B0E00316B70049108C222020A25316B702AE4
:100B1D00D228020A1F12096B7020900F78EA5460D8
:100B2D00C4F893F52808E893F529900F80EA541F2F
:100B3D0023F893F52A08E893F52B020A2512096B81
:100B4D0070F8C22275250074AB12096D6004D22CA9
:100B5D0021AA752500748312096D60DED22D21AA9C
:0E0B6D00316B701D9108D22A411F316B70133D
:0F0B7B00BA000E752500E52612096D6006D22E10
:0F0B8A0021AA8A26020A2574EE12096D020A2595
:100B990012096B7015D229411F12096B700CEA13E7
:0F0BA90092901392919223139292020A2574FE56
:0E0BB80012096D60030209AA302C03020B51D2
:100BC600302D03020B5F302E03020B7EE5257003EA
:0F0BD600020A25020A1FEA5403900BED93F8EA76
:100BE50054FC03032456F922030C30C0785676FFD3
:0F0BF50008B872FAC2257528017529F4752A000F
:0F0C0400752B5C22301E012278341201C574401A
:100C1300A2B405A01350F9A2B41356F63001060886
:100C23001201DA80E9752E43752F43E4F532F5336B
:0F0C3300A21AF523921AF5317808E5341350020E
:100C42000531D8F9E53530E7020531780313500252
:0F0C52000531D8F9E535A2E49216E536131313F0
:100C61009211139210E541139217E542A2E09215F9
:0F0C7100A2E59214D21E750C00750D00C2092267
:0F0C800075817F7590FF758A00758CF1120FC01A
:100C8F00787F76FFB6FF0B7600B6000618B801F234
:0F0C9F008008787F7600D8FC79FCC22102003EE5
:100CAE00C2A9312A75817F7590BF758A00758CF146
:0E0CBE00C2D3120FC0787F76FFB6FF0B760010
:0F0CCC00B6000618B801F28008787F7600D8FCD1
:0F0CDB0079FC892C75260171F1752E43752F4315
:100CEA00D2205390FFD28CD2A930B5FD7801B1073A
:100CFA00E52C12081470F230B5EF02007179FA008F
:100D0A000000D9FBD8F7224B504D48534F51524758
:100D1A00493700381D1C351D382A363A0000451A55
:100D2A001B2B474849374A2627281C4B4C4D4E1E39
:100D3A001F2021222324252C2D2E2F30313233340B
:100D4A00353952534F5051013B3C3D3E3F404119CA
:100D5A004243445758460029020304050607080976
:100D6A000A0B0C0D0E17180F10111213141516007A
:100D7A002B56737C7D787E6B72747571697A706C90
:100D8A007D7C0011145A4A141112595800007754E4
:100D9A005B5D6C757D7C7B4B4C525A6B7374791C12
:100DAA001B232B34333B421A22212A32313A41493E
:100DBA004A29707169727A760506040C030B834D11
:100DCA000A010978077E000E161E26252E363D3E9C
:100DDA0046454E556643440D151D242D2C353C00C1
:100DEA005D6151686A636DE1E0EAE3E4656D676E2F
:100DFA006F5700395879771119125914000076D4AF
:100E0A00DBDC6C757D7E84CBCCD2DA6B7374FC9C94
:100E1A009BA3ABB4B3BBC29AA2A1AAB2B1BAC1C9CD
:100E2A00CAA9707169727A08070F171F272F37CD61
:100E3A003F474F565E5F628E969EA6A5AEB6BDBE72
:100E4A00C6C5CED5E6C3C48D959DA4ADACB5BC00D0
:100E5A00D393D168DD78FBE11D45E19DC5E046E00D
:100E6A00C6E11477E1F014F077E07EE0F07EFFFF50
:100E7A00FFFFFFFFFF4140FFFFFFFF605042FF10EF
:100E8A00126A14615143FF11302928625244FF3219
:100E9A00312A63545345FF3A332B65645546FF356F
:100EAA00342D2C665647FF0C362E67575849FF37A4
:100EBA002F5E5F5A594AFF38392021485B4BFF6B36
:100ECA002269185C4C0A0D1323191A6D4D4E010044
:100EDA004F0304055D076C3D02241B0608093B3CD1
:100EEA003E25261C170F6E0E3F6F271D1EFFFFFFA4
:100EFA00FFFF1FFFFFFF00010203040506070809A1
:100F0A000A140C170E0FFFFF1213FFFFFFFF181929
:100F1A001A1B1C1D1E1F20212223242526272829AF
:100F2A002A2B2C2D2E2F303132333435363738399F
:100F3A003A3B3C3D3E3F404142434445464748498F
:100F4A004A4B4C4D4E4F505152535455565758597F
:100F5A005A5B5C5D5E5F60616263646566671169C6
:100F6A006A6B6C6D6E6F10FFFFFFFF0DFFFF00FADB
:100F7A0001F402EE03E8002100250029002E0032C8
:100F8A000036003A003F0043004B0053005C006407
:100F9A00006D0074007D0085009500A700B600C8AA
:100FAA0000DC00E900FA010E012F014D01720190E7
:0F0FBA0001B301DC01F479AA227590F1120FF254
:0F0FC9007590F8120FE57590FA120FF27590F807
:0F0FD800120FE57590F4120FF27590F8227F0456
:0F0FE7007E647DFADDFEDEFADFF6227F017E6496
:100FF6007DFADDFEDEFADFF622C2AF7590F780FEDF
:00000001FF
