:0300000002004CAF
:100008000000E2FBEAF2802C0000E0FBEAF080242A
:10001800E6B50202EBF62200E2B50202EBF222009C
:10002800E0B50202EBF02230F6E0A88220F5D3EA30
:10003800C6F582228B822230F6E6A88220F5D98086
:01004800CFE8
:0300A5000200490D
:0300490002011899
:1000A80079009000A8E5827010E583700CE9B41F10
:1000B800047509AA227509FC221582E582B4FF029B
:1000C8001583E49369F980DD227F1CEF14FEF9772C
:1000D800FFEEFF70F6C2257528017529F4752A0010
:1000E800752B5C22E5A05407FFE50FFE24CCF5E054
:1000F800C403E5E02F90018193F50A22AF828F06B1
:100108001FEE600BAE108E051EED60F20080F72228
:10011800D2AF75810F7590F7758A00758CF17510DF
:10012800FA7582C81201041200A875087FA9087719
:10013800FFA9088707BFFF117700A908E7700A150C
:1001480008E50824FE40E6800D75087FA9087700B9
:10015800D508F97509FCD22185092C7526021200EB
:10016800D1752E43752F435390F82021EBD28CD2B2
:05017800A9D2A880E3FC
:01018100007D
:06007B00E478FFF6D8FD59
:100059007900E94400601B7A00900182780175A05B
:1000690000E493F2A308B8000205A0D9F4DAF27506
:02007900A0FFE6
:100081007800E84400600A790175A000E4F309D81A
:10009100FC7800E84400600C7900900001E4F0A3D2
:0400A100D8FCD9FAB4
:0D004C0075811012017DE5826003020049FC
:04017D007582002265
:00000001FF
